:1000000002308A00FE2A00000A108A100A118207B4
:1000100028340C34013406348A062A152A152A1588
:100020002A152A152A152A152A152A152A152A15D8
:100030002A152A152A152A152A152A152A152A15C8
:100040002A152A152A152A152A152A152A152A15B8
:100050008A06000050396F35E531741020102010E9
:100060002010201D202643222038F2346E3AA0377B
:10007000753A8A060001D03A7238EF3965102010BF
:1000800020102010201D202AE5397410CC214410A6
:10009000CD37E43AEC328A060001C13A743465394E
:1000A0002010201020102010201D2025D5265010B3
:1000B000733A613974106937EE37F630F4346F37BC
:1000C0008A060001C536E1346C1020102010201083
:1000D0002010201D2035F536F039F430723A69379A
:1000E000EE37F630F4346F37C033ED306936AE3169
:1000F000EF368A060001C3376D38EC3465392010BD
:1001000020102010201DA021C3292E28C32B481702
:10011000761AAE18331A8A060001C8307232F730E8
:10012000F232201020102010201D2028C921311C5F
:100130004619B51A30050D002A152A152A152A1553
:100140002A152A152A152A152A152A152A152A15B7
:100150002A152A152A152A152A152A152A152A15A7
:100160002A152A152A152A152A152A152A152A1597
:100170002A158A0600003E1F20264322A024EE34C2
:10018000F434613620172E1720224F2745050D0025
:10019000D422532A5F21552AD4274E00483D00001F
:1001A0000B08B2008B13831603178C170C14000076
:1001B000000083120313B21B8B1703170C087F393F
:1001C000031926290313B20003170D080313B30004
:1001D00003170F080313B40032080C1EED28990012
:1001E000330803178D000313340803178F0003131C
:1001F0000B08B5008B13831603178C170C14000023
:10020000000083120313B51B8B1703170C0D0E0D83
:100210007F39031926290313B20003170D080313AE
:10022000B30003170F080313B40032080C1E16297D
:100230009900330803178D000313340803178F0048
:100240008D0A03198F0A0313D0280317031308001C
:100250000C3003178D0000308F000313D0202A309C
:1002600003178D0000308F000313D0203B3003179D
:100270008D0000308F000313D0204D3003178D0008
:1002800000308F000313D020623003178D00003040
:100290008F000313D0207B3003178D0000308F00B8
:1002A0000313D0208D3003178D0000308F0003130F
:1002B000D0209C3003178D0000308F000313D02016
:1002C0008A110A12252B3C3084008313000803197D
:1002D00076290230F800F701F70B6C29F80B6B292F
:1002E0009730F700F70B7229800B69290800431833
:1002F0007B2905107C290514831605108312C31869
:100300008329851084298514831685108312431947
:100310008B2905118C290515831605118312C31924
:10032000932985119429851583168511000085125E
:10033000831285169B299C298316851283128512A8
:100340000800A8102808831687008312871027301A
:10035000F700F70BA929AC29C0080319B629A81082
:1003600028088316870083128714BC29A810280840
:10037000831687008312871000008316851283126C
:100380008512410EC2000F30C2054208C30077211A
:1003900041080F39C200C300772108000130A700CF
:1003A000A8102808831687008312871083168512E9
:1003B000831285122330BC006321B2013208023C53
:1003C000031CEA290330C30077210530BC006321F8
:1003D000B20ADE290230C3007721B2013208033CA1
:1003E000031CFE2932080420B300C0013308C100F9
:1003F000A1210530BC006321B20AEE298A110A123C
:10040000262B3D08013A0319092A033A03190C2A3D
:100410000F2A8030BE00112AC030BE00112A803061
:10042000BE0001303C02BE073E088038BF00C0015C
:100430003F08C100A12108003B080C3A0319272AF4
:10044000063A0319312A023A0319382A3D2AC00113
:100450000130C100A1210130A7000230BC0063219E
:10046000422AA70A0130BC002708BD000122422A07
:10047000C0011030C100A121422A0130C0003B0858
:10048000C100A12108000B08B2008B1383160317CB
:100490008C170C140000000083120313B21B8B177F
:1004A00003170C087F390319972A0313B2000317A7
:1004B0000D080313B30003170F080313B400320829
:1004C000BB001C22330803178D00031334080317E5
:1004D0008F0003130B08B5008B13831603178C17BB
:1004E0000C140000000083120313B51B8B170317B5
:1004F0000C0D0E0D7F390319972A0313B200031751
:100500000D080313B30003170F080313B4003208D8
:10051000BB001C22330803178D0003133408031794
:100520008F008D0A03198F0A0313432A031703133D
:100530000800BA010408B9003A10831B3A14330EBC
:10054000F038B500B507E23EB600323EB8003308D9
:100550000F39B607B607B807E93EB700B707B707C0
:10056000320E0F39B707B807B70DB80DB809B80D77
:1005700032080F39B807B50D0730B4000A30B80794
:10058000B703031CBF2AB707B603031CC32AB60769
:10059000B503031CC72AB507B403031CCB2A3430A8
:1005A0008400831307303905391384073830040277
:1005B000031939170008F700031DE62A391BE62A3C
:1005C000391AF82AB919E62A2030E92AB915391258
:1005D0003030F707B3010408B2003310831B331423
:1005E0007708BB001C22320884008313331883175A
:1005F000840A391FD62A8A110A12522B03081F397E
:100600008300A6018316031787110C30031399008A
:10061000A2309800903083129800FF30A800AA0101
:10062000A901831603170908C039890003131F1293
:100630009F12003003178800831287018801890107
:1006400083130313A001A1012829CE29BB3003176E
:100650008D0000308F000313D0205930AB004F3095
:10066000AC005930AD004F30AE00AF010130B100E9
:10067000F430B0000430BC000130BD000122C830AD
:1006800003178D0000308F00031343220530BC0098
:100690000230BD000122103084003108B300300860
:1006A000B200992A831686158312861D5A2BB00A2A
:1006B0000319B10A831606158312061D632B300831
:1006C0000319B103B0032815280883168700831285
:1006D000071D712B0C30BB001C220130B100F4301F
:1006E000B0000C30BC000230BD000122CE30031738
:0E06F0008D0000308F00031343223A2B63006D
:04400E00E22FFF3F5F
:00000001FF
;PIC16F886
;CRC=6D7A  CREATED="10-Mar-21 14:51"
