:1000000003308A00C52B0000FF00030E8301A1000E
:100010000A08A0008A010408A2007708A300780853
:10002000A4007908A5007A08A60003170D08031399
:10003000A70003170F080313A80003170C080313E6
:10004000A90003170E080313AA00831383128C3030
:100050008400001C2D280C184E2822088400230838
:10006000F7002408F8002508F9002608FA002708F8
:1000700003178D000313280803178F0003132908A3
:1000800003178C0003132A0803178E00031320089C
:100090008A00210E8300FF0E7F0E09008A110A12CA
:1000A0008F280A108A100A118207463452345134BC
:1000B0005F345234453453344534543400340A10D8
:1000C0008A100A118207433455345234523445346D
:1000D0004E3454345F3446344534513400340A10BD
:1000E0008A100A1182074234543431345F34463462
:1000F000453451345F3453344534543400340A1099
:100100008A100A1182074234543432345F34463440
:10011000453451345F3453344534543400348E0103
:1001200032088F0031088E00831606134030831288
:1001300086060C108A110A122D28483D0000311045
:100140007039E539F3326405000032107039E53951
:10015000F33264050001483D000174347234753493
:1001600065340034663461346C347334653400347F
:1001700031107039E539F3326405000132107039FD
:10018000E539F3326405000133107039E539F33293
:100190006405000134107039E539F332640500015B
:1001A00035107039E539F3326405000136107039C5
:1001B000E539F33264050000253084008317000818
:1001C0000319EF280230F800F701F70BE528F80BC8
:1001D000E4289730F700F70BEB28800BE2280800A3
:1001E00003172C0EF039F7000F30031306057704C0
:1001F000860000000614FC28FD28061008000608EA
:10020000F700060E0F39F800080083160610861056
:100210000611831286100F3083160605F03886000B
:1002200083120615000006140000FF20780803174B
:10023000AC0003130610000006141E29FF207808E6
:100240000317AB00031306100F3083160605860054
:10025000831203172C0EF700F030F70577082B04F4
:10026000F8007808AB00AB1F372903130B292918B6
:100270003C29031386100317291C412903138614F4
:1002800003170000031306110000061003172A0EBF
:10029000AB000F30AB052B08AC000313F0200317A5
:1002A0002A080F39AB00AC000313F02008002830F7
:1002B00003179A000C309B0001309C0006309D0013
:1002C00003130610861006110F30831606058600EC
:1002D0000610861006110F3083120317A5000313B2
:1002E000DC200130031799001908033C031C842902
:1002F0000330AC000313F02005300317A5000313EF
:10030000DC200317990A74290230AC000313F02093
:1003100005300317A5000313DC2003179901190802
:10032000033C031CA1291A30190784008317000815
:100330009E00A9011E08AA00031305210317990AAC
:100340008F2903138A110A129D2C0B080317990099
:1003500003138B13831603178C170C140000000073
:100360008312991FB62903138B1703170C087F39C3
:100370000319F52999000D089A000F089B00190828
:1003800003130C1EC129990003171A088D001B08BE
:100390008F0003130B0803179C0003138B138316A2
:1003A00003178C170C140000000083129C1FDB291C
:1003B00003138B1703170C0D0E0D7F390319F52945
:1003C00099000D089A000F089B00190803130C1ED2
:1003D000E729990003171A088D001B088F008D0A62
:1003E00003198F0A0313A529031703130800031722
:1003F000260BFB29FE294030A700FF29A701013069
:100400002502A70727088038A800A9012808AA0004
:1004100003130521080003172408073A03130319DF
:100420001B2A0B3A0319222A063A03192E2A023AEA
:100430000319362A3D2A01300317A500A60003132D
:10044000F721442A0317A9010130AA00031305214B
:1004500002300317A5000313DC20442A01300317E0
:10046000A5000230A6000313F721442A0317A901AF
:100470001030AA0003130521442A01300317A900F4
:100480002408AA000313052108000317A301040888
:10049000A2002310831B23141C0EF0389E009E071D
:1004A000E23E9F00323EA1001C080F399F079F07C4
:1004B000A107E93EA000A007A0071B0E0F39A00767
:1004C000A107A00DA10DA109A10D1B080F39A107BE
:1004D0009E0D07309D000A30A107A003031C6C2A63
:1004E000A0079F03031C702A9F079E03031C742A06
:1004F0009E079D03031C782A1D3084008317073054
:100500002205221384072130040203192217000850
:10051000F700031D932A221B932A221AA72AA21945
:10052000932A2030962AA21522123030F7079C0118
:1005300004089B001C10831B1C147708A4000313E1
:100540000B2203171B08840083131C188317840ACB
:10055000221F832A031308000B0803179B000313B1
:100560008B13831603178C170C14000000008312E2
:100570009B1FBD2A03138B1703170C087F39031920
:10058000FA2A9B000D089C000F089D001B08A40080
:1005900003130B2203171C088D001D088F00031383
:1005A0000B0803179E0003138B13831603178C1776
:1005B0000C140000000083129E1FE12A03138B1706
:1005C00003170C0D0E0D7F390319FA2A9B000D0835
:1005D0009C000F089D001B08A40003130B220317A7
:1005E0001C088D001D088F008D0A03198F0A031344
:1005F000AC2A03170313080080080319192B0317EB
:100600009B0104089A001B10831B1B140008031392
:100610000C1E082B990003171A08840083131B185B
:100620008317840A031D172B0313850A031703136B
:10063000FC2A8A110A12002E0317190DF9001A0D4F
:10064000FA00F90DFA0DFC30F90579089B007A08DB
:100650009C008310A0010F309F0042309E0040306C
:100660009D00A401A3011C08A2001B08A10083187F
:100670003C2B253084008317F701F801F901FA01BA
:10068000A501A601A701A80124082304220421042E
:1006900003197A2B2030A90003109D0D9E0D9F0D8C
:1006A000A00DA50DA60DA70DA80D24082802031D59
:1006B000632B23082702031D632B22082602031D38
:1006C000632B21082502031C742B2108A502220894
:1006D000031C220FA6022308031C230FA7022408D1
:1006E000031C240FA8020314F70DF80DF90DFA0DE1
:1006F000A90B4C2B25088000840A26088000840A58
:1007000027088000840A280880007708003CF7004A
:100710007808031C780F8E2B00308F2B003CF800DC
:100720007908031C790F962B0130972B013CF900B7
:100730007A08031C7A0F9E2B00309F2B003CFA0096
:100740007808F9007708F80003130800053003174C
:10075000A5000230A6000313F72110308400031710
:100760001A089C0019089B00031345220C3003173C
:10077000A5000230A6000313F7219D3003178D005A
:1007800000308F000313AC22080003081F398300D8
:10079000713083168F0090010F08031787110C30FA
:1007A00003139900A2309800903083129800FE3015
:1007B000B2002330B100E601E501FF30E700831607
:1007C00003170908C039890003131F129F12003054
:1007D000031788008312870188018901831303139B
:1007E000AB01AC012330B300FE30B4002330B500C0
:1007F000FE30B6005730B700FE30B8002330B900E5
:10080000FE30BA009B30BB00FE30BC008530BD001E
:10081000FE30BE002330BF00FE30C0002330C100D8
:10082000FE30C2005730C300FE30C4002330C50084
:10083000FE30C600C230C700FE30C8009B30C90081
:10084000FE30CA002330CB00FE30CC002330CD0078
:10085000FE30CE001A30CF00FF30D000E430D1009F
:10086000FE30D2009B30D300FE30D4008530D5005E
:10087000FE30D6005730D700FE30D800F430D90013
:10088000FE30DA00F430DB00FE30DC00E430DD0066
:10089000FE30DE009B30DF00FE30E000C230E100C1
:1008A000FE30E2009B30E300FE30E400643083164B
:1008B000A000A1015030A200A3018C30A400A5012A
:1008C0007830A600A701A800A9018C30AA00AB01CE
:1008D0006430AC00AD015030AE00AF018C30B000E0
:1008E000B1017830B200B301B400B5018C30B6006C
:1008F000B7016430B800B9015030BA00BB018C3088
:10090000BC00BD01BE00BF017830C000C101C20003
:10091000C301C400C5016430C600C7015030C8001F
:10092000C9018C30CA00CB017830CC00CD01CE009B
:10093000CF01D000D10183125729253090008E01BC
:1009400032088F0031088E0083160C14C0308312D9
:100950008B04FF308316D2000130D400F430D30072
:100960004330D5005530D6005230D700D80045303E
:10097000D9004E30DA005430DB005F30DC00463006
:10098000DD004530DE005130DF00FF30E1001A307D
:10099000E000FF30E3003530E200FF30E5004C308E
:1009A000E400FF30E7005730E600FF30E9006A302E
:1009B000E800FF30EB007C30EA006108ED006008E1
:1009C000EC006308EF006208EE006508831203176D
:1009D0009100831603136408831203179000831693
:1009E0000313670883120317930083160313660823
:1009F00083120317920083160313690883120317E7
:100A00009500831603136808831203179400831656
:100A100003136B08831203179700831603136A08E6
:100A20008312031796008316031386178312031786
:100A300018100313861B1F2D031718140313831696
:100A40008615831286192C2D9F3003178D000030D8
:100A50008F000313A521382D83160615831206195E
:100A6000382DA53003178D0000308F000313A5210A
:100A70000C300317A40003130B2204300317A50046
:100A80000130A6000313F721D5300317A400031388
:100A90000B2205300317A5000230A6000313F7212F
:100AA0001030840083165408831203179C008316A9
:100AB00003135308831203179B0003134522671582
:100AC00067088316870083120719852D0130831666
:100AD000D400F430D3000C3083120317A4000313A6
:100AE0000B22031799019A01D5308400831319084A
:100AF00084071A0803135120800000380319852D3C
:100B000003179A0A990A742D031383168616831203
:100B1000861AB22D83165408613C031C992D031DBF
:100B2000952D5308A73C031C992DD30A0319D40A09
:100B30009D2D6130D400A830D30083120317990192
:100B40009A01D53084008313190884071A08031307
:100B50005F20800000380319B22D03179A0A990A02
:100B6000A12D0313831606168312061AE12D831690
:100B70005408003C0318C82DFF3A031DC32D530829
:100B8000F43C0318C82D53080319D403D303CC2D08
:100B90000130D400F430D3008312031799019A0175
:100BA000D53084008313190884071A0803135F20C3
:100BB000800000380319E12D03179A0A990AD02DF5
:100BC00003130C300317A5000230A6000313F7210E
:100BD000AB3003178D0000308F000313AC220317D6
:100BE000181CF62D0030FA00AD30F92D0030FA0057
:100BF000B2309900840083131A1883170313FC2A58
:100C00000317181C8A2E0130831603135202FA3E72
:100C10000318882E063E83129A2F831654088312D7
:100C200003179A00831603135308831203179900BE
:100C300003131C2379088316ED007808EC00882E36
:100C400083165408831203179A008316031353085C
:100C500083120317990003131C2379088316EF00EE
:100C60007808EE00882E83165408831203179A0022
:100C700083160313530883120317990003131C23CD
:100C80007908031791007808900083160313882EC3
:100C900083165408831203179A008316031353080C
:100CA00083120317990003131C2379080317930079
:100CB0007808920083160313882E83165408831233
:100CC00003179A008316031353088312031799001E
:100CD00003131C23790803179500780894008316E2
:100CE0000313882E83165408831203179A00831661
:100CF0000313530883120317990003131C23790865
:100D0000031797007808960083160313882E83161E
:100D10008312031783160313861583128619D92E9F
:100D200001308316D200B830831203178D000030D3
:100D30008F000313A52183166D088312B20083165A
:100D40006C088312B10083160C140C308312031745
:100D5000A40003130B2202300317A5000130A600E4
:100D60000313F721031799019A01D53084008313E7
:100D7000190884071A0803136F208000003803192C
:100D8000C62E03179A0A990AB52E0313D5300317F6
:100D9000A40003130B2283165408831203179A002E
:100DA0008316031353088312031799000313A62312
:100DB000982F8316061583120619252F02308316E5
:100DC000D2006F088312B20083166E088312B1003E
:100DD00083160C14BE30831203178D0000308F0071
:100DE0000313A5210C300317A40003130B220230B8
:100DF0000317A5000130A6000313F721031799017B
:100E00009A01D53084008313190884071A08031344
:100E10007F20800000380319122F03179A0A990ABD
:100E2000012F0313D5300317A40003130B228316DD
:100E30005408831203179A0083160313530883126E
:100E4000031799000313A623982F83168614831281
:100E50008618412F03308316D2008312031711081E
:100E60000313B200031710080313B10083160C1408
:100E7000C430831203178D0000308F000313A521A7
:100E8000982F83160614831206185D2F04308316DC
:100E9000D2008312031713080313B20003171208BA
:100EA0000313B10083160C14CA30831203178D008C
:100EB00000308F000313A521982FE71667088316CB
:100EC00087008312871A7B2F05308316D200831286
:100ED000031715080313B200031714080313B10016
:100EE00083160C14D030831203178D0000308F004E
:100EF0000313A521982F67166708831687008312AE
:100F0000071A982F06308316D2008312031717088A
:100F10000313B200031716080313B10083160C1451
:100F2000D630831203178D0000308F000313A521E4
:100F30001F2D63000A148A140A1582070D2E202E15
:080F4000332E482E5D2E722EA7
:04400E00C42FFF3F7D
:00000001FF
;PIC16F886
;CRC=4768  CREATED="11-มี.ค.-21 17:52"
