:1000000003308A00A42B0000FF00030E8301A1002F
:100010000A08A0008A010408A2007708A300780853
:10002000A4007908A5007A08A60003170D08031399
:10003000A70003170F080313A80003170C080313E6
:10004000A90003170E080313AA00831383128C3030
:100050008400001C2D280C184E2822088400230838
:10006000F7002408F8002508F9002608FA002708F8
:1000700003178D000313280803178F0003132908A3
:1000800003178C0003132A0803178E00031320089C
:100090008A00210E8300FF0E7F0E09008A110A12CA
:1000A00059280A108A100A11820728340C340134A6
:1000B00006348E0134088F0033088E008316061331
:1000C0004030831286060C108A110A122D28483DF2
:1000D0000000C32AD2224E2A5F23C5280001483DD2
:1000E000000131107039E539F33264050000532AFC
:1000F0004129D42FD424CD22A01EA012EC3A0A000C
:1001000032107039E539F33264050001532A412970
:10011000D42FD424CD22A01EA012EC3A0A0018300D
:100120008400831700080319A2280230F800F701A1
:10013000F70B9828F80B97289730F700F70B9E28B5
:10014000800B9528080003171F18AA280313051011
:10015000AC28031703130514831605108312031725
:100160009F18B62803138510B828031703138514A6
:1001700083168510831203171F19C2280313051154
:10018000C4280317031305158316051183120317DB
:100190009F19CE2803138511D02803170313851543
:1001A000831685110000851283128516D728D8285A
:1001B00083168512831285120800B2103208831646
:1001C0008700831287102730F700F70BE528E8280F
:1001D00003179C080319F5280313B210320883167D
:1001E000870083128714FC2803170313B210320808
:1001F00083168700831287100000831685128312EE
:10020000851203171D0E9E000F309E051E089F00CD
:100210000313A32003171D080F399E009F0003132B
:10022000A32008000130B100B21032088316870005
:1002300083128710831685128312851223300317C9
:10024000980003138F208316EE016E08023C031CF6
:1002500037290330831203179F000313A3200530AF
:100260000317980003138F208316EE0A2529023006
:10027000831203179F000313A3208316EE016E0859
:10028000033C031C5B296E08831251208316EF0088
:10029000831203179C01831603136F08831203173D
:1002A0009D000313DD2005300317980003138F20F2
:1002B0008316EE0A3F2983128A110A127C2C031737
:1002C0001908013A031303196929033A03196D291F
:1002D0007229803003179A007529C03003179A00DD
:1002E00075290313803003179A00013018029A070A
:1002F0001A0880389B009C011B089D000313DD2019
:100300000800031717080C3A031303198E29063A3D
:1003100003199C29023A0319A729AE2903179C0146
:1003200001309D000313DD200130B10002300317BE
:10033000980003138F20B529B10A013003179800E4
:10034000031331080317990003135F21B52903171D
:100350009C0110309D000313DD20B52901300317E7
:100360009C0017089D000313DD2008000B080317ED
:10037000900003138B13831603178C170C140000C3
:1003800000008312901FC72903138B1703170C0853
:100390007F390319042A90000D0891000F0892007C
:1003A0001008970003138121031711088D0012080C
:1003B0008F0003130B080317930003138B1383168B
:1003C00003178C170C14000000008312931FEB29F5
:1003D00003138B1703170C0D0E0D7F390319042A15
:1003E00090000D0891000F08920010089700031369
:1003F0008121031711088D0012088F008D0A03193F
:100400008F0A0313B6290317031308000317960175
:10041000040895001610831B1614831603136F0E21
:10042000F0388312031791009107E23E9200323EAA
:100430009400831603136F080F3983120317920772
:1004400092079407E93E93009307930783160313DB
:100450006E0E0F398312031793079407930D940DB3
:100460009409940D831603136E080F398312031732
:100470009407910D073090000A3094079303031CF2
:100480003D2A93079203031C412A92079103031C00
:10049000452A91079003031C492A103084008317D2
:1004A00007301505151384071430040203191517B6
:1004B0000008F700031D642A151B642A151A7E2AFA
:1004C0009519642A2030672A951515123030F707E0
:1004D00083160313EF010408EE006F10831B6F14E3
:1004E00077088312031797000313812183166E0880
:1004F000840083136F18831783120317840A151F50
:10050000542A03138A110A12E52C0B0803179000D2
:1005100003138B13831603178C170C1400000000B1
:100520008312901F962A03138B1703170C087F3929
:100530000319D52A90000D0891000F0892001008A9
:1005400003130C1EA12A9900031711088D0012082D
:100550008F0003130B080317930003138B138316E9
:1005600003178C170C14000000008312931FBB2A82
:1005700003138B1703170C0D0E0D7F390319D52AA2
:1005800090000D0891000F089200100803130C1E34
:10059000C72A9900031711088D0012088F008D0AD1
:1005A00003198F0A0313852A0317031308000B0886
:1005B0000317900003138B13831603178C170C1467
:1005C000000000008312901FE82A03138B17031703
:1005D0000318182B0C087F3990000D0891000F08A4
:1005E0009200100803130C1EF32A99000317110838
:1005F0008D0012088F0003130B08031793000313D9
:100600008B13831603178C170C1400000000831241
:10061000931F0D2B03138B17031783160313EE0B76
:10062000122B152B83120317182B352B831203174C
:100630000C0D0E0D7F3990000D0891000F089200EF
:10064000100803130C1E222B9900031711088D00AC
:1006500012088F008D0A03198F0A031083160313E3
:10066000EE0B332B352B8312D72A83120800031786
:100670009601040895001610831B161483160313A5
:100680006F0EF0388312031791009107E23E92003B
:10069000323E9400831603136F080F398312031739
:1006A000920792079407E93E9300930793078316F6
:1006B00003136E0E0F398312031793079407930DDC
:1006C000940D9409940D831603136E080F39831249
:1006D00003179407910D073090000A309407930395
:1006E000031C6E2B93079203031C722B920791033A
:1006F000031C762B91079003031C7A2B1030840087
:1007000083170730150515138407143004020319E5
:1007100015170008F700031D952B151B952B151AAF
:100720009F2B9519952B2030982B9515151230304D
:10073000F707770803130C1E9B2B99000317840AF5
:10074000151F852B0313080003081F398300713020
:1007500083168F0090010F08031787110C300313C5
:100760009900A2309800903083129800FF30B200B8
:10077000FE30B4002330B300E801E701831603170D
:100780000908C039890003131F129F120030031794
:100790008800831287018801890183130313AB0149
:1007A000AC012330B500FE30B6002330B700FE3078
:1007B000B8005730B900FE30BA002330BB00FE301D
:1007C000BC009B30BD00FE30BE008530BF00FE3057
:1007D000C0002330C100FE30C2002330C300FE3011
:1007E000C4005730C500FE30C6002330C700FE30BD
:1007F000C800C230C900FE30CA009B30CB00FE30BA
:10080000CC002330CD00FE30CE002330CF00FE30B0
:10081000D0001A30D100FF30D200E430D300FE30D7
:10082000D4009B30D500FE30D6008530D700FE3096
:10083000D8005730D900FE30DA00F430DB00FE304B
:10084000DC00F430DD00FE30DE00E430DF00FE309E
:10085000E0009B30E100FE30E200C230E300FE30F9
:10086000E4009B30E500FE30E60064308316A00013
:10087000A1015030A200A3018C30A400A501783062
:10088000A600A701A800A9018C30AA00AB01643022
:10089000AC00AD015030AE00AF018C30B000B10102
:1008A0007830B200B301B400B5018C30B600B701A6
:1008B0006430B800B9015030BA00BB018C30BC00C4
:1008C000BD01BE00BF017830C000C101C200C3013C
:1008D000C400C5016430C600C7015030C800C9015A
:1008E0008C30CA00CB017830CC00CD01CE00CF01D6
:1008F000D000D10183121229253090008E013408D6
:100900008F0033088E0083160C14C03083128B04C2
:10091000FF308316D2000130D400F430D300FF3012
:10092000D6001A30D500FF30D8003530D700FF3060
:10093000DA004C30D900FF30DC005730DB00FF30EC
:10094000DE006A30DD00FF30E0007C30DF0056085A
:10095000E2005508E1005808E4005708E3005A088F
:10096000E6005908E5005C08E8005B08E7005E085F
:10097000EA005D08E9006008EC005F08EB008617FC
:100980006D108312861FC72C83166D1483120430DA
:10099000031798000130990003135F216930031792
:1009A0008D0000308F000313B62105300317980027
:1009B0000230990003135F2110308400831654081D
:1009C000EF005308EE008312062A32153208831610
:1009D000870083120719F72C01308316D400F430F6
:1009E000D3000C3083120317970003138121831661
:1009F00086168312861A102D83165408613C031C38
:100A00000B2D031D072D5308A73C031C0B2DD30AE8
:100A10000319D40A0F2D6130D400A830D3008312FB
:100A2000831606168312061A2B2D83165408003CD3
:100A30000318262DFF3A031D212D5308F43C0318FB
:100A4000262D53080319D403D3032A2D0130D400D3
:100A5000F430D30083120C30031798000230990051
:100A600003135F216F3003178D0000308F000313D5
:100A7000B62183166D1C692D01305202FA3E03180F
:100A8000692D063E8312252E83165408E200530872
:100A9000E100692D83165408E4005308E300692D32
:100AA00083165408E6005308E500692D83165408A0
:100AB000E8005308E700692D83165408EA0053083C
:100AC000E900692D83165408EC005308EB00692DEA
:100AD00083168615831286199F2D01308316D20046
:100AE0007130831203178D0000308F0003138522AD
:100AF000831662088312B400831661088312B30060
:100B000083160C147730831203178D0000308F008A
:100B100003100D3083160313EE008312D72210301A
:100B2000840034088316EF00831233088316EE0026
:100B3000831237230A300C1E9B2D9900232E831617
:100B4000061583120619D42D02308316D2006408CC
:100B50008312B400831663088312B30083160C1447
:100B60008030831203178D0000308F00031385221D
:100B7000863003178D0000308F0003100D30831670
:100B80000313EE008312D72210308400340883163A
:100B9000EF00831233088316EE00831237230A30E6
:100BA0000C1ED02D9900232E831686148312861CCA
:100BB000E72D03308316D20066088312B400831633
:100BC00065088312B30083160C14222E8312831639
:100BD00006148312061CFA2D04308316D20068080E
:100BE0008312B400831667088312B30083160C14B3
:100BF000222E8312B2163208831687008312871EB4
:100C00000F2E05308316D2006A088312B4008316B3
:100C100069088312B30083160C14222E8312321635
:100C20003208831687008312071E232E0630831690
:100C3000D2006C088312B40083166B088312B300D1
:100C400083160C148312C72C63000A108A140A1529
:0E0C50008207442D4A2D502D562D5C2D622D0D
:04400E00C42FFF3F7D
:00000001FF
;PIC16F886
;CRC=6DCC  CREATED="11-Mar-21 00:10"
