:1000000003308A00692B0000FF00030E8301A1006A
:100010000A08A0008A010408A2007708A300780853
:10002000A4007908A5007A08A60003170D08031399
:10003000A70003170F080313A80003170C080313E6
:10004000A90003170E080313AA00831383128C3030
:100050008400001C2D280C184E2822088400230838
:10006000F7002408F8002508F9002608FA002708F8
:1000700003178D000313280803178F0003132908A3
:1000800003178C0003132A0803178E00031320089C
:100090008A00210E8300FF0E7F0E09008A110A12CA
:1000A00059280A108A100A11820728340C340134A6
:1000B00006348E0134088F0033088E008316061331
:1000C0004030831286060C108A110A122D28483DF2
:1000D0000000422AB12FC6225100422AB12FC62267
:1000E0005100422AB12FC6225100422AB12FC62206
:1000F0005100422AB12FC6225100422AB12FC622F6
:100100005100422AB12FC622D12FD3225400422AB5
:10011000B22FC622D12FD3225400422AB32FC62297
:10012000D12FD3225400422AB42FC622D12FD3225A
:100130005400422AB52FC622D12FD3225400422A7E
:10014000B62FC622D12FD3225400C32A52294527C5
:10015000D42FC6225100483D000131107039E539D5
:10016000F3326405000032107039E539F33264056A
:10017000000133107039E539F332640500013410A1
:100180007039E539F3326405000135107039E5390D
:10019000F3326405000136107039E539F332640535
:1001A00000006C308400831300080319E428023037
:1001B000F800F701F70BDA28F80BD9289730F70089
:1001C000F70BE028800BD72808007318E9280510E2
:1001D000EA28051483160510F318F22883128510F7
:1001E000F428831683128514831685107319FC284E
:1001F00083120511FE288316831205158316051137
:10020000F31906298312851108298316831285158F
:100210008316851100008512831285160F29102977
:1002200083168512831285120800B21032088316D5
:100230008700831287102730F700F70B1D2920292C
:10024000F00803192A29B210320883168700831296
:1002500087143029B2103208831687008312871062
:1002600000008316851283128512710EF2000F3082
:10027000F2057208F300E52071080F39F200F3006F
:10028000E52008000130B100B21032088316870063
:100290008312871083168512831285122330EC0097
:1002A000D120E0016008023C031C5E290330F3000A
:1002B000E5200530EC00D120E00A52290230F3009D
:1002C000E520E0016008033C031C7229600851200E
:1002D000E100F0016108F10015210530EC00D120AA
:1002E000E00A62298A110A12972B6D08013A031954
:1002F0007D29033A0319802983298030EE0085295E
:10030000C030EE0085298030EE0001306C02EE072F
:100310006E088038EF00F0016F08F1001521080029
:100320006B080C3A03199B29063A0319A529023ACE
:100330000319AC29B129F0010130F1001521013078
:10034000B1000230EC00D120B629B10A0130EC0036
:100350003108ED007521B629F0011030F1001521AA
:10036000B6290130F0006B08F100152108000B08D8
:10037000E2008B13831603178C170C140000000087
:1003800083120313E21B8B1703170C087F39031921
:100390000B2A0313E20003170D080313E3000317EE
:1003A0000F080313E4006208EB00902163080317B1
:1003B0008D000313640803178F0003130B08E50077
:1003C0008B13831603178C170C1400000000831284
:1003D0000313E51B8B1703170C0D0E0D7F39031943
:1003E0000B2A0313E20003170D080313E30003179E
:1003F0000F080313E4006208EB0090216308031761
:100400008D000313640803178F008D0A03198F0AE8
:100410000313B729031703130800EA010408E900CE
:100420006A10831B6A14630EF038E500E507E23EAC
:10043000E600323EE80063080F39E607E607E80702
:10044000E93EE700E707E707620E0F39E707E8072D
:10045000E70DE80DE809E80D62080F39E807E50D3A
:100460000730E4000A30E807E703031C332AE707F4
:10047000E603031C372AE607E503031C3B2AE507CE
:10048000E403031C3F2A64308400831307306905AA
:100490006913840768300402031969170008F7001C
:1004A000031D5A2A691B5A2A691A6C2AE9195A2A01
:1004B00020305D2AE91569123030F707E30104089E
:1004C000E2006310831B63147708EB00902162083D
:1004D0008400831363188317840A691F4A2A08005B
:1004E000600DF900610DFA00F90DFA0DFC30F90507
:1004F0007908E2007A08E3008310E7010F30E60094
:100500004230E5004030E400EB01EA016308E90015
:100510006208E80083188F2A6C3084008313F70187
:10052000F801F901FA01EC01ED01EE01EF016B08B0
:100530006A04690468040319CD2A2030F00003100E
:10054000E40DE50DE60DE70DEC0DED0DEE0DEF0DF7
:100550006B086F02031DB62A6A086E02031DB62AD5
:1005600069086D02031DB62A68086C02031CC72ABD
:100570006808EC026908031C690FED026A08031C95
:100580006A0FEE026B08031C6B0FEF020314F70DEA
:10059000F80DF90DFA0DF00B9F2A6C088000840A03
:1005A0006D088000840A6E088000840A6F0880004D
:1005B0007708003CF7007808031C780FE12A003028
:1005C000E22A003CF8007908031C790FE92A01307F
:1005D000EA2A013CF9007A08031C7A0FF12A00305C
:1005E000F22A003CFA007808F9007708F8000800C1
:1005F0000B08E0008B13831603178C170C140000F4
:10060000000083120313E01B8B1703170C087F39BC
:1006100003194E2B0313E00003170D080313E10029
:1006200003170F080313E20060080C1E152B990036
:10063000610803178D000313620803178F0003136B
:100640000B08E3008B13831603178C170C140000A0
:10065000000083120313E31B8B1703170C0D0E0D01
:100660007F3903194E2B0313E00003170D08031302
:10067000E10003170F080313E20060080C1E3E2B75
:100680009900610803178D000313620803178F0098
:100690008D0A03198F0A0313F82A0317031308009E
:1006A0000530EC000230ED00752110308400610847
:1006B000E3006008E2000D220C30EC000230ED0097
:1006C0007521673003178D0000308F000313B721A9
:1006D000080003081F398300713083168F009001D2
:1006E0000F08031787110C3003139900A2309800EC
:1006F000903083129800FF30B200FE30B4002330F7
:10070000B300B601B501831603170908C039890083
:1007100003131F129F1200300317880083128701F2
:100720008801890183130313AB01AC0142292530F1
:1007300090008E0134088F0033088E0083160C144D
:10074000C03083128B04FF30B7000130B900F430A1
:10075000B800FF30BC001A30BB00FF30BE0035309F
:10076000BD00FF30C0004C30BF00FF30C20057302A
:10077000C100FF30C4006A30C300FF30C6007C30C7
:10078000C5003C08C8003B08C7003E08CA003D0839
:10079000C9004008CC003F08CB004208CE00410809
:1007A000CD004408D0004308CF004608D2004508D9
:1007B000D1008316861783125F10861F5F140C30DA
:1007C000EB0090210430EC000130ED0075213A0877
:1007D000013A03190D2C033A03191A2C013A031993
:1007E000272C073A0319342C013A0319412C033AF8
:1007F00003194E2C0D3A03195B2C073A0319682C88
:10080000013A0319752C033A0319822C013A031992
:100810008F2C1F3A03199C2CA92C0530EC000130B9
:10082000ED007521693003178D0000308F00031330
:10083000B721B52C0530EC000130ED0075216D308D
:1008400003178D0000308F000313B721B52C05303E
:10085000EC000130ED007521713003178D00003080
:100860008F000313B721B52C0530EC000130ED00EB
:100870007521753003178D0000308F000313B721E9
:10088000B52C0530EC000130ED00752179300317EF
:100890008D0000308F000313B721B52C0530EC001C
:1008A0000130ED0075217D3003178D0000308F0081
:1008B0000313B721B52C0330EC000130ED00752196
:1008C000813003178D0000308F000313B721B52C42
:1008D0000330EC000130ED007521873003178D00E7
:1008E00000308F000313B721B52C0330EC0001302A
:1008F000ED0075218D3003178D0000308F0003133C
:10090000B721B52C0330EC000130ED007521933098
:1009100003178D0000308F000313B721B52C03306F
:10092000EC000130ED007521993003178D00003087
:100930008F000313B721B52C0330EC000130ED001C
:1009400075219F3003178D0000308F000313B721EE
:10095000B52C0330EC000130ED007521A5300317F4
:100960008D0000308F000313B7210530EC000230FA
:10097000ED007521103084003908E3003808E200EA
:100980000D22321532088316870083120719D12CE5
:100990000130B900F430B8000C30EB009021073082
:1009A000BA00831686168312861AEA2C3908613C2F
:1009B000031CE42C031DE02C3808A73C031CE42C8A
:1009C000B80A0319B90AE82C6130B900A830B80098
:1009D000FF30BA00831606168312061A052D390851
:1009E000003C0318FF2CFF3A031DFA2C3808F43C96
:1009F0000318FF2C38080319B903B803032D01307D
:100A0000B900F430B800FF30BA000C30EC0002300E
:100A1000ED007521AB3003178D0000308F000313FC
:100A2000B7215F1C792D01303702FA3E0318792D6A
:100A3000063E3E2E3908E1003808E00070227908B1
:100A4000C8007808C7003908D4003808D3000B3034
:100A5000BA00792D3908E1003808E00070227908E1
:100A6000CA007808C9003908D6003808D5000C300B
:100A7000BA00792D3908E1003808E00070227908C1
:100A8000C8007808C7003908D8003808D7000D30EA
:100A9000BA00792D3908E1003808E00070227908A1
:100AA000C8007808C7003908DA003808D9000E30C5
:100AB000BA00792D3908E1003808E0007022790881
:100AC000C8007808C7003908DC003808DB000F30A0
:100AD000BA00792D3908E1003808E0007022790861
:100AE000C8007808C7003908DE003808DD0010307B
:100AF000BA008316861583128619992D0130B70026
:100B0000AD3003178D0000308F000313F822480822
:100B1000B4004708B30083160C140C308312EB00AA
:100B200090210130BA003908E1003808E000502374
:100B30003C2E8316061583120619B92D0230B70014
:100B40004A08B4004908B30083160C14B33083126A
:100B500003178D0000308F000313F8220C30EB00D8
:100B600090210230BA003908E1003808E000502333
:100B70003C2E8316861483128618D92D0330B700B5
:100B80004C08B4004B08B30083160C14B930831220
:100B900003178D0000308F000313F8220C30EB0098
:100BA00090210330BA003908E1003808E0005023F2
:100BB0003C2E8316061483120618F92D0430B70054
:100BC0004E08B4004D08B30083160C14BF308312D6
:100BD00003178D0000308F000313F8220C30EB0058
:100BE00090210430BA003908E1003808E0005023B1
:100BF0003C2EB2163208831687008312871A1B2EEA
:100C00000530B7005008B4004F08B30083160C1429
:100C1000C530831203178D0000308F000313F822B4
:100C20000C30EB0090210530BA003908E10038089B
:100C3000E00050233C2E32163208831687008312C0
:100C4000071A3C2E0630B7005208B4005108B30012
:100C500083160C14CB30831203178D0000308F00E5
:100C60000313F8220C30EB0090210630BA0039084B
:100C7000E1003808E0005023DF2B63000A108A14DB
:100C80000A1582071A2D2A2D3A2D4A2D5A2D6A2D22
:04400E00C42FFF3F7D
:00000001FF
;PIC16F886
;CRC=33BC  CREATED="11-Mar-21 20:59"
