:1000000002308A00042A0000FF00030E8301A100D1
:100010000A08A0008A010408A2007708A300780853
:10002000A4007908A5007A08A60003170D08031399
:10003000A70003170F080313A80003170C080313E6
:10004000A90003170E080313AA00831383128C3030
:100050008400001C2D280C184E2822088400230838
:10006000F7002408F8002508F9002608FA002708F8
:1000700003178D000313280803178F0003132908A3
:1000800003178C0003132A0803178E00031320089C
:100090008A00210E8300FF0E7F0E09008A110A12CA
:1000A00051288E0132088F0031088E00831605100A
:1000B0000130831285060C108A110A122D2848215E
:1000C0004410D327CE230000DC30840083130008C3
:1000D000031977280230F800F701F70B6D28F80BA9
:1000E0006C289730F700F70B7328800B6A280800FC
:1000F0008316620EF039F7000F308312060577047D
:1001000086000000061484288528061008000608CA
:10011000F700060E0F39F800080083160610861047
:100120000611831286100F3083160605F0388600FC
:100130008312061500000614000087207808831635
:10014000E2008312061000000614A6288720780813
:100150008316E100831206100F3083160605860011
:10016000620EF700F030F70577086104F8007808B0
:10017000E100E11FBD28831293285F18C228831273
:10018000861083165F1CC72883128614831600000E
:1001900083120611000006108316600EE1000F3076
:1001A000E1056108E20083127820831660080F39A8
:1001B000E100E20083127820080028308316D8007E
:1001C0000C30D9000130DA000630DB008312061053
:1001D000861006110F30831606058600061086105D
:1001E00006110F30DC008312642001308316D70023
:1001F0005708033C031C08290330E20083127820CF
:1002000005308316DC00831264208316D70AF82891
:100210000230E2008312782005308316DC0083125E
:1002200064208316D7015708033C031C2529D830C6
:100230005707840083130008DC00DF015C08E0003E
:1002400083128D208316D70A132983128A110A126A
:10025000DC2A83165C0B2D2930294030DD00312942
:10026000DD0101305B02DD075D088038DE00DF0163
:100270005E08E00083128D20080083165A08073AB2
:10028000831203194D290B3A03195429063A03190D
:100290006029023A031968296F2901308316DB00AF
:1002A000DC008312292176298316DF010130E0006A
:1002B00083128D2002308316DC008312642076299D
:1002C00001308316DB000230DC00831229217629FD
:1002D0008316DF011030E00083128D207629013073
:1002E0008316DF005A08E00083128D2008000B08F7
:1002F0008316D70083128B13831603178C170C14E5
:10030000000000000313D71F882983128B17831660
:10031000831203170C087F390319E9298316031385
:10032000D700831203170D0883160313D800831216
:1003300003170F0883160313D9005708DA00831236
:100340003D2183165808831203178D00831603136B
:100350005908831203178F0003130B088316DA0062
:1003600083128B13831603178C170C1400000000E4
:100370000313DA1FBE2983128B1783168312031708
:100380000C0D0E0D7F390319E92983160313D700CD
:10039000831203170D0883160313D8008312031763
:1003A0000F0883160313D9005708DA0083123D2182
:1003B00083165808831203178D00831603135908F8
:1003C000831203178F008D0A03198F0A03137729ED
:1003D000031703138A110A120C2B83165808F8010D
:1003E00057020318F6295708F700022AF7010830C8
:1003F000D900D70DF70D580877020318F700F80D4C
:10040000D90BF9298312080003081F3983007130C2
:1004100083168F0090010F08031787110C30031308
:100420009900A2309800903083129800FE30B200FC
:100430002330B100FF30E500E701E6018316031722
:100440000908C039890003131F129F1200300317D7
:100450008800831287018801890183130313AB018C
:10046000AC012330B300FE30B4002330B500FE30C1
:10047000B6005730B700FE30B8002330B900FE3068
:10048000BA009B30BB00FE30BC008530BD00FE30A2
:10049000BE002330BF00FE30C0002330C100FE305C
:1004A000C2005730C300FE30C4002330C500FE3008
:1004B000C600C230C700FE30C8009B30C900FE3005
:1004C000CA002330CB00FE30CC002330CD00FE30FC
:1004D000CE001A30CF00FF30D000E430D100FE3023
:1004E000D2009B30D300FE30D4008530D500FE30E2
:1004F000D6005730D700FE30D800F430D900FE3097
:10050000DA00F430DB00FE30DC00E430DD00FE30E9
:10051000DE009B30DF00FE30E000C230E100FE3044
:10052000E2009B30E300FE30E40064308316A0005C
:10053000A1015030A200A3018C30A400A5017830A5
:10054000A600A701A800A9018C30AA00AB01643065
:10055000AC00AD015030AE00AF018C30B000B10145
:100560007830B200B301B400B5018C30B600B701E9
:100570006430B800B9015030BA00BB018C30BC0007
:10058000BD01BE00BF017830C000C101C200C3017F
:10059000C400C5016430C600C7015030C800C9019D
:1005A0008C30CA00CB017830CC00CD01CE00CF0119
:1005B000D000D1018312DD288316D20125308312A9
:1005C00090008E0132088F0031088E0083160C14C3
:1005D000C03083128B048316D301D401D501D60118
:1005E000D308031D172B8312651565088316870032
:1005F00083120719152B8316D408031D102B043002
:10060000DB000130DC00831229215F3003178D00ED
:1006100000308F000313772901308316D400112B8B
:10062000D401D2010130D3008312222B831683120E
:1006300065156508831687008312071D222B831614
:10064000D30183128316861583128619362B8316DF
:10065000D40803192D2B8312362BFF308312B200DE
:100660001A30B10083160C14EF2B83128316061573
:10067000831206194A2B8316D4080319412B8312BF
:100680004A2BFF308312B2003530B10083160C14B0
:10069000EF2B831283168614831286185E2B831623
:1006A000D4080319552B83125E2BFF308312B2003E
:1006B0004C30B10083160C14EF2B831283160614F2
:1006C00083120618722B8316D4080319692B831220
:1006D000722BFF308312B2005730B10083160C1416
:1006E000EF2B8312E5166508831687008312871A9D
:1006F000882B8316D40803197F2B8312882BFF3095
:100700008312B2006A30B10083160C14EF2B8312EF
:1007100065166508831687008312071A9E2B8316B9
:10072000D4080319952B83129E2BFF308312B2003D
:100730007C30B10083160C14EF2B83128316540BFC
:10074000EA2B55080139031DC12BD608031DC02B08
:100750005208D7001D30D8008312ED210310F70D89
:100760007708333E84008313840A0008B2008403B0
:100770000008B10083160C14D20A0130D600C12B38
:10078000D601D50A5208D7001E30D8008312ED21B9
:1007900001307702F7000310F70D7708A03E8400C0
:1007A0008313840A00088316D80084030008D70046
:1007B0005808D900D90AD9030319E42BFF30DC000B
:1007C000831264208316DB2B5708DC00831264201D
:1007D000F02B83168312B201B1018316D20183126A
:0607E0008316F02A6300FD
:04400E00C42FFF3F7D
:00000001FF
;PIC16F886
;CRC=D6B3  CREATED="10-มี.ค.-21 17:14"
