:1000000003308A00962B0000FF00030E8301A1003D
:100010000A08A0008A010408A2007708A300780853
:10002000A4007908A5007A08A60003170D08031399
:10003000A70003170F080313A80003170C080313E6
:10004000A90003170E080313AA00831383128C3030
:100050008400001C2D280C184E2822088400230838
:10006000F7002408F8002508F9002608FA002708F8
:1000700003178D000313280803178F0003132908A3
:1000800003178C0003132A0803178E00031320089C
:100090008A00210E8300FF0E7F0E09008A110A12CA
:1000A00051288E0132088F0031088E008316061306
:1000B0004030831286060C108A110A122D28483D02
:1000C0000000C32AD2224E2A5F23C5280001483DE2
:1000D000000131107039E539F33264050000532A0C
:1000E0004129D42FD424CD22A01EA012EC3A0A001C
:1000F00032107039E539F33264050001532A412981
:10010000D42FD424CD22A01EA012EC3A0A0018301D
:1001100084008317000803199A280230F800F701B9
:10012000F70B9028F80B8F289730F700F70B9628DD
:10013000800B8D28080003171F0EF039F7000F30D1
:10014000031306057704860000000614A728A828D4
:10015000061008000608F700060E0F39F800080020
:100160008316061086100611831286100F30831630
:100170000605F038860083120615000006140000FC
:10018000AA20780803179F00031306100000061426
:10019000C928AA20780803179E00031306100F3001
:1001A000831606058600831203171F0EF700F03032
:1001B000F70577081E04F80078089E009E1FE228C5
:1001C0000313B6281C18E7280313861003171C1CFA
:1001D000EC28031386140317000003130611000014
:1001E000061003171D0E9E000F309E051E089F006F
:1001F00003139B2003171D080F399E009F00031354
:100200009B2008002830031790000C30910001302B
:1002100092000630930003130610861006110F306B
:100220008316060586000610861006110F3083120D
:10023000031798000313872001308316EE006E0821
:10024000033C031C31290330831203179F0003135F
:100250009B20053003179800031387208316EE0AAE
:100260001F290230831203179F0003139B200530C0
:1002700003179800031387208316EE016E08033CD2
:10028000031C562910306E07840083170008EF0006
:10029000831203179C01831603136F08831203173D
:1002A0009D000313B0208316EE0A3E2983128A11A3
:1002B0000A126E2C0317190B5E29612940309A002F
:1002C00062299A01013018029A071A0880389B00A7
:1002D0009C011B089D000313B0200800031717089A
:1002E000073A031303197E290B3A03198529063AA5
:1002F00003199129023A03199929A02901300317FA
:100300009800990003135A21A72903179C01013073
:100310009D000313B02002300317980003138720B9
:10032000A7290130031798000230990003135A21BE
:10033000A72903179C0110309D000313B020A729A3
:10034000013003179C0017089D000313B02008001C
:100350000B080317900003138B13831603178C17D6
:100360000C14000000008312901FB92903138B178F
:1003700003170C087F390319F62990000D08910026
:100380000F0892001008970003136E21031711083D
:100390008D0012088F0003130B080317930003133B
:1003A0008B13831603178C170C14000000008312A4
:1003B000931FDD2903138B1703170C0D0E0D7F39C7
:1003C0000319F62990000D0891000F0892001008FB
:1003D000970003136E21031711088D0012088F0078
:1003E0008D0A03198F0A0313A829031703130800A2
:1003F00003179601040895001610831B1614831624
:1004000003136F0EF0388312031791009107E23E39
:100410009200323E9400831603136F080F39831243
:100420000317920792079407E93E930093079307F7
:10043000831603136E0E0F39831203179307940765
:10044000930D940D9409940D831603136E080F39C0
:10045000831203179407910D073090000A30940718
:100460009303031C2F2A93079203031C332A92073A
:100470009103031C372A91079003031C3B2A103079
:100480008400831707301505151384071430040200
:10049000031915170008F700031D562A151B562AC5
:1004A000151A702A9519562A2030592A95151512B1
:1004B0003030F70783160313EF010408EE006F10C6
:1004C000831B6F14770883120317970003136E21A1
:1004D00083166E08840083136F1883178312031723
:1004E000840A151F462A03138A110A12D72C0B08F7
:1004F0000317900003138B13831603178C170C1428
:10050000000000008312901F882A03138B17031723
:100510000C087F390319C72A90000D0891000F08B5
:100520009200100803130C1E932A99000317110858
:100530008D0012088F0003130B0803179300031399
:100540008B13831603178C170C1400000000831202
:10055000931FAD2A03138B1703170C0D0E0D7F3954
:100560000319C72A90000D0891000F089200100887
:1005700003130C1EB92A9900031711088D001208E5
:100580008F008D0A03198F0A0313772A03170313A9
:1005900008000B080317900003138B13831603172F
:1005A0008C170C14000000008312901FDA2A03132A
:1005B0008B17031703180A2B0C087F3990000D08BE
:1005C00091000F089200100803130C1EE52A9900F1
:1005D000031711088D0012088F0003130B0803176F
:1005E000930003138B13831603178C170C1400004E
:1005F00000008312931FFF2A03138B170317831620
:100600000313EE0B042B072B831203170A2B272B44
:10061000831203170C0D0E0D7F3990000D08910009
:100620000F089200100803130C1E142B99000317D7
:1006300011088D0012088F008D0A03198F0A03100C
:1006400083160313EE0B252B272B8312C92A831243
:10065000080003179601040895001610831B161452
:10066000831603136F0EF03883120317910091075E
:10067000E23E9200323E9400831603136F080F3956
:1006800083120317920792079407E93E930093079A
:100690009307831603136E0E0F3983120317930704
:1006A0009407930D940D9409940D831603136E080B
:1006B0000F39831203179407910D073090000A3009
:1006C00094079303031C602B93079203031C642B72
:1006D00092079103031C682B91079003031C6C2B5A
:1006E0001030840083170730150515138407143064
:1006F0000402031915170008F700031D872B151BAB
:10070000872B151A912B9519872B20308A2B95153D
:1007100015123030F707770803130C1E8D2B990044
:100720000317840A151F772B0313080003081F39CA
:100730008300713083168F0090010F080317871113
:100740000C3003139900A230980090308312980067
:10075000FE30B2002330B100E601E501FF30E700D2
:10076000831603170908C039890003131F129F124B
:1007700000300317880083128701880189018313E1
:100780000313AB01AC012330B300FE30B4002330BF
:10079000B500FE30B6005730B700FE30B800233049
:1007A000B900FE30BA009B30BB00FE30BC00853083
:1007B000BD00FE30BE002330BF00FE30C00023303D
:1007C000C100FE30C2005730C300FE30C4002330E9
:1007D000C500FE30C600C230C700FE30C8009B30E6
:1007E000C900FE30CA002330CB00FE30CC002330DD
:1007F000CD00FE30CE001A30CF00FF30D000E43004
:10080000D100FE30D2009B30D300FE30D4008530C2
:10081000D500FE30D6005730D700FE30D800F43077
:10082000D900FE30DA00F430DB00FE30DC00E430CA
:10083000DD00FE30DE009B30DF00FE30E000C23025
:10084000E100FE30E2009B30E300FE30E400643063
:100850008316A000A1015030A200A3018C30A40097
:10086000A5017830A600A701A800A9018C30AA0034
:10087000AB016430AC00AD015030AE00AF018C3044
:10088000B000B1017830B200B301B400B5018C30D2
:10089000B600B7016430B800B9015030BA00BB01EE
:1008A0008C30BC00BD01BE00BF017830C000C1016A
:1008B000C200C301C400C5016430C600C701503086
:1008C000C800C9018C30CA00CB017830CC00CD0102
:1008D000CE00CF01D000D101831202292530900033
:1008E0008E0132088F0031088E0083160C14C03040
:1008F00083128B04FF308316D2000130D400F43011
:10090000D300FF30D6001A30D500FF30D800353084
:10091000D700FF30DA004C30D900FF30DC00573010
:10092000DB00FF30DE006A30DD00FF30E0007C30AD
:10093000DF005608E2005508E1005808E4005708B7
:10094000E3005A08E6005908E5005C08E8005B0887
:10095000E7005E08EA005D08E9006008EC005F0857
:10096000EB0086176D108312861FB92C83166D1449
:1009700083120430031798000130990003135A21A1
:10098000613003178D0000308F000313A82105305C
:10099000031798000230990003135A211030840085
:1009A00083165408EF005308EE008312F8296715E8
:1009B00067088316870083120719E92C0130831614
:1009C000D400F430D3000C308312031797000313C4
:1009D0006E21831686168312861A022D83165408FA
:1009E000613C031CFD2C031DF92C5308A73C031C80
:1009F000FD2CD30A0319D40A012D6130D400A8308C
:100A0000D3008312831606168312061A1D2D831631
:100A10005408003C0318182DFF3A031D132D5308EA
:100A2000F43C0318182D53080319D403D3031C2DC9
:100A30000130D400F430D30083120C300317980037
:100A40000230990003135A21673003178D000030DC
:100A50008F000313A82183166D1C5B2D01305202F9
:100A6000FA3E03185B2D063E8312172E8316540898
:100A7000E2005308E1005B2D83165408E40053089C
:100A8000E3005B2D83165408E6005308E5005B2D58
:100A900083165408E8005308E7005B2D83165408BA
:100AA000EA005308E9005B2D83165408EC00530854
:100AB000EB005B2D8316861583128619912D01306C
:100AC0008316D2006930831203178D0000308F0027
:100AD00003137722831662088312B200831661081B
:100AE0008312B10083160C146F30831203178D002C
:100AF00000308F0003100D3083160313EE008312B5
:100B0000C9221030840032088316EF0083123108A6
:100B10008316EE00831229230A300C1E8D2D9900B6
:100B2000152E8316061583120619C62D023083165C
:100B3000D20064088312B200831663088312B100E6
:100B400083160C147830831203178D0000308F0049
:100B5000031377227E3003178D0000308F000310BF
:100B60000D3083160313EE008312C9221030840067
:100B700032088316EF00831231088316EE008312C9
:100B800029230A300C1EC22D9900152E83168614B7
:100B90008312861CD92D03308316D2006608831277
:100BA000B200831665088312B10083160C14142E4C
:100BB0008312831606148312061CEC2D0430831650
:100BC000D20068088312B200831667088312B1004E
:100BD00083160C14142E8312E716670883168700F9
:100BE0008312871E012E05308316D2006A088312F5
:100BF000B200831669088312B10083160C14142EF8
:100C0000831267166708831687008312071E152E46
:100C100006308316D2006C088312B20083166B086C
:100C20008312B10083160C148312B92C63000A10CE
:100C30008A140A158207362D3C2D422D482D4E2D43
:020C4000542D31
:04400E00C42FFF3F7D
:00000001FF
;PIC16F886
;CRC=E120  CREATED="10-มี.ค.-21 23:26"
