:1000000008308A0000280000FF00030E8301A100D1
:100010000A08A0008A010408A2007708A300780853
:10002000A4007908A5007A08A60003170D08031399
:10003000A70003170F080313A80003170C080313E6
:10004000A90003170E080313AA00831383128C3030
:100050008400001C2D280C184E2822088400230838
:10006000F7002408F8002508F9002608FA002708F8
:1000700003178D000313280803178F0003132908A3
:1000800003178C0003132A0803178E00031320089C
:100090008A00210E8300FF0E7F0E09008A110A12CA
:1000A00051288E0132088F0031088E008316061306
:1000B0004030831286060C108A110A122D28483D02
:1000C0000000D722CC21CF264500C32CC226C32C4A
:1000D000D329C2295327D426CD210001422AB12F8A
:1000E000C6225100483D0001422AB22FC6225100CB
:1000F000483D0001422AB32FC6225100483D00016D
:10010000422AB42FC6225100483D0001422AB52F91
:10011000C6225100483D0001422AB62FC622510096
:10012000483D0001C622D12FD222D3225400483D9F
:100130000001422AB12FC622D12FD3225400483DBC
:100140000001422AB22FC622D12FD3225400483DAB
:100150000001422AB32FC622D12FD3225400483D9A
:100160000001422AB42FC622D12FD3225400483D89
:100170000001422AB52FC622D12FD3225400483D78
:100180000001422AB62FC622D12FD3225400483D67
:100190000001C32A52294527D42FC6225100483DC9
:1001A0000001F232F33274107039E539F33264052C
:1001B0000000693763107039E539F33264050001D6
:1001C000E43263107039E539F33264050001F3322B
:1001D00074107039E539F33264050001F33274109C
:1001E0007039E539F33264050001F3327410703967
:1001F000E539F33264050001F33274107039E539E2
:10020000F33264050001F33274107039E539F332CA
:1002100064050001F33274107039E539F332640576
:10022000000131107039E539F332640500013210F4
:100230007039E539F3326405000133107039E5395E
:10024000F3326405000134107039E539F332640586
:10025000000135107039E539F332640500013610BC
:100260007039E539F332640500006A308400831385
:100270000008031948290230F800F701F70B3E295E
:10028000F80B3D299730F700F70B4429800B3B29E9
:100290000800710EF039F7000F300605770486006C
:1002A0000000061453295429061008000608F70018
:1002B000060E0F39F8000800831606108610061186
:1002C000831286100F3083160605F03886008312DD
:1002D000061500000614000056217808F1000610EB
:1002E00000000614732956217808F00006100F301C
:1002F000831606058600710EF700F030F7057708C3
:100300007004F8007808F000F01F88298312622931
:1003100083126E1C86106E188614000006110000F1
:1003200006106F0EF0000F30F0057008F100492143
:100330006F080F39F000F100492108002830DF0074
:100340000C30E0000130E1000630E20006108610BB
:1003500006110F308316060586000610861006115A
:100360000F308312EA0035210130DE005E08033CC5
:10037000031CC2290330F10049210530EA00352170
:10038000DE0AB6290230F10049210530EA003521A4
:10039000DE015E08033C031CD9295F305E07840040
:1003A00083130008E300EE016308EF005C21DE0A1E
:1003B000C9298A150A122F286B0BDF29E229403040
:1003C000EC00E329EC0101306A02EC076C0880388C
:1003D000ED00EE016D08EF005C2108006908073AA6
:1003E0000319FC290B3A0319012A063A0319092AB1
:1003F000023A03190F2A142A0130EA00EB00DC212B
:10040000192AEE010130EF005C210230EA003521AB
:10041000192A0130EA000230EB00DC21192AEE0132
:100420001030EF005C21192A0130EE006908EF005E
:100430005C2108000B08E0008B13831603178C1750
:100440000C140000000083120313E01B8B1703172A
:100450000C087F3903196E2A0313E00003170D08F7
:100460000313E10003170F080313E2006008E9001B
:10047000EE21610803178D000313620803178F0034
:1004800003130B08E3008B13831603178C170C144C
:100490000000000083120313E31B8B1703170C0DDE
:1004A0000E0D7F3903196E2A0313E00003170D08A0
:1004B0000313E10003170F080313E2006008E900CB
:1004C000EE21610803178D000313620803178F00E4
:1004D0008D0A03198F0A03131A2A0317031308003E
:1004E000E8010408E7006810831B6814610EF03807
:1004F000E300E307E23EE400323EE60061080F3924
:10050000E407E407E607E93EE500E507E507600ED6
:100510000F39E507E607E50DE60DE609E60D60088B
:100520000F39E607E30D0730E2000A30E607E5037E
:10053000031C962AE507E403031C9A2AE407E30355
:10054000031C9E2AE307E203031CA22A62308400F4
:1005500083130730670567138407663004020319A5
:1005600067170008F700031DBD2A671BBD2A671A1D
:10057000CF2AE719BD2A2030C02AE715671230308C
:10058000F707E1010408E0006110831B611477089C
:10059000E900EE2160088400831361188317840A40
:1005A000671FAD2A08000530EA000230EB00DC21AD
:1005B000103084005F08E1005E08E00070220C301B
:1005C000EA000230EB00DC215F3003178D000030C1
:1005D0008F0003131A2208000B08DE008B1383160A
:1005E00003178C170C140000000083120313DE1B8A
:1005F0008B1703170C087F390319422B0313DE00F6
:1006000003170D080313DF0003170F080313E0009F
:100610005E080C1E092B99005F0803178D00031359
:10062000600803178F0003130B08E1008B13831678
:1006300003178C170C140000000083120313E11B36
:100640008B1703170C0D0E0D7F390319422B031363
:10065000DE0003170D080313DF0003170F08031351
:10066000E0005E080C1E322B99005F0803178D0016
:100670000313600803178F008D0A03198F0A0313F1
:10068000EC2A0317031308005E0DF9005F0DFA0052
:10069000F90DFA0DFC30F9057908E0007A08E1005F
:1006A0008310E5010F30E4004230E3004030E20007
:1006B000E901E8016108E7006008E6008318632BA0
:1006C0006A3084008313F701F801F901FA01EA01A5
:1006D000EB01EC01ED016908680467046604031985
:1006E000A12B2030EE000310E20DE30DE40DE50D2B
:1006F000EA0DEB0DEC0DED0D69086D02031D8A2B63
:1007000068086C02031D8A2B67086B02031D8A2B85
:1007100066086A02031C9B2B6608EA026708031C32
:10072000670FEB026808031C680FEC026908031CE2
:10073000690FED020314F70DF80DF90DFA0DEE0B2C
:10074000732B6A088000840A6B088000840A6C0896
:100750008000840A6D0880007708003CF700780864
:10076000031C780FB52B0030B62B003CF80079083D
:10077000031C790FBD2B0130BE2B013CF9007A0818
:10078000031C7A0FC52B0030C62B003CFA007808FA
:08079000F9007708F8000800E9
:1010000003081F398300713083168F0090010F0889
:10101000031787110C3003139900A2309800903009
:1010200083129800FE30B2002330B100B401B30146
:10103000FF30B500831603170908C0398900031370
:101040001F129F1200300317880083128701880146
:10105000890183130313AB01AC018A119E298A1500
:101060000C30E9008A11EE218A150530EA000130C2
:10107000EB008A11DC218A15613003178D000030E6
:101080008F008A1103131A228A150130EA000230F8
:10109000EB008A11DC218A15653003178D000030C2
:1010A0008F008A1103131A228A15253090008E01B1
:1010B00032088F0031088E0083160C14C030831262
:1010C0008B04FF30B6000130B800F430B700FF30B9
:1010D000B900BB001A30BA00FF30BD003530BC008B
:1010E000FF30BF004C30BE00FF30C1005730C000A1
:1010F000FF30C3006A30C200FF30C5007C30C4003E
:101100003B08C7003A08C6003D08C9003C08C800B3
:101110003F08CB003E08CA004108CD004008CC0083
:101120004308CF004208CE004508D1004408D00053
:101130000430D3001330D2000430D5009730D400EF
:101140000530D7002730D6000530D9007730D800D9
:101150000630DB001D30DA000630DD00E430DC0054
:101160003908013A0319DC28033A03191429013A12
:1011700003195329073A03198B29013A0319C32983
:10118000033A0319FB29013A0319332A0C3A0319CC
:101190009B2A073A0319D32A013A03190B2B033A66
:1011A0000319432B013A03197B2B1F3A0319B32B65
:1011B000733A0319EB2B272C0C30E9008A11EE212E
:1011C0008A150530EA000130EB008A11DC218A150E
:1011D0006E3003178D0000308F008A1103131A221E
:1011E0008A150530EA000230EB008A11DC218A15ED
:1011F000103084005308E1005208E0008A11702288
:101200008A150C30EA000230EB008A11DC218A15C5
:10121000723003178D0000308F008A1103131A22D9
:101220008A15FF30B900272C0C30E9008A11EE2115
:101230008A150530EA000130EB008A11DC218A159D
:10124000743003178D0000308F008A1103131A22A7
:101250008A150530EA000230EB008A11DC218A157C
:10126000103084005508E1005408E0008A11702213
:101270008A150C30EA000230EB008A11DC218A1555
:10128000783003178D0000308F008A1103131A2263
:101290008A15FF30B9005508DF005408DE008A11B6
:1012A000D3228A15272C0C30E9008A11EE218A15E9
:1012B0000530EA000130EB008A11DC218A157A3012
:1012C00003178D0000308F008A1103131A228A152C
:1012D0000530EA000230EB008A11DC218A1510305B
:1012E00084005708E1005608E0008A1170228A1530
:1012F0000C30EA000230EB008A11DC218A157E30C6
:1013000003178D0000308F008A1103131A228A15EB
:10131000FF30B900272C0C30E9008A11EE218A1524
:101320000530EA000130EB008A11DC218A1580309B
:1013300003178D0000308F008A1103131A228A15BB
:101340000530EA000230EB008A11DC218A151030EA
:1013500084005908E1005808E0008A1170228A15BB
:101360000C30EA000230EB008A11DC218A1584304F
:1013700003178D0000308F008A1103131A228A157B
:10138000FF30B900272C0C30E9008A11EE218A15B4
:101390000530EA000130EB008A11DC218A15863025
:1013A00003178D0000308F008A1103131A228A154B
:1013B0000530EA000230EB008A11DC218A1510307A
:1013C00084005B08E1005A08E0008A1170228A1547
:1013D0000C30EA000230EB008A11DC218A158A30D9
:1013E00003178D0000308F008A1103131A228A150B
:1013F000FF30B900272C0C30E9008A11EE218A1544
:101400000530EA000130EB008A11DC218A158C30AE
:1014100003178D0000308F008A1103131A228A15DA
:101420000530EA000230EB008A11DC218A15103009
:1014300084005D08E1005C08E0008A1170228A15D2
:101440000C30EA000230EB008A11DC218A15903062
:1014500003178D0000308F008A1103131A228A159A
:10146000FF30B900272C0C30E9008A11EE218A15D3
:101470000430EA000130EB008A11DC218A15923039
:1014800003178D0000308F008A1103131A228A156A
:101490000530EA000230EB008A11DC218A15103099
:1014A00084003808E1003708E0008A1170228A15AC
:1014B0000C30EA000230EB008A11DC218A159730EB
:1014C00003178D0000308F008A1103131A228A152A
:1014D0003B08C7003A08C6003D08C9003C08C800E0
:1014E0003F08CB003E08CA004108CD004008CC00B0
:1014F0004308CF004208CE004508D1004408D00080
:101500000430D3001330D2000430D5009730D4001B
:101510000530D7002730D6000530D9007730D80005
:101520000630DB001D30DA000630DD00E430DC0080
:10153000FF30B900272C0C30E9008A11EE218A1502
:101540000330EA000130EB008A11DC218A15993062
:1015500003178D0000308F008A1103131A228A1599
:101560000530EA000230EB008A11DC218A151030C8
:1015700084003808E1003708E0008A1170228A15DB
:101580000C30EA000230EB008A11DC218A159F3012
:1015900003178D0000308F008A1103131A228A1559
:1015A000FF30B900272C0C30E9008A11EE218A1592
:1015B0000330EA000130EB008A11DC218A15A130EA
:1015C00003178D0000308F008A1103131A228A1529
:1015D0000530EA000230EB008A11DC218A15103058
:1015E00084003808E1003708E0008A1170228A156B
:1015F0000C30EA000230EB008A11DC218A15A7309A
:1016000003178D0000308F008A1103131A228A15E8
:10161000FF30B900272C0C30E9008A11EE218A1521
:101620000330EA000130EB008A11DC218A15A93071
:1016300003178D0000308F008A1103131A228A15B8
:101640000530EA000230EB008A11DC218A151030E7
:1016500084003808E1003708E0008A1170228A15FA
:101660000C30EA000230EB008A11DC218A15AF3021
:1016700003178D0000308F008A1103131A228A1578
:10168000FF30B900272C0C30E9008A11EE218A15B1
:101690000330EA000130EB008A11DC218A15B130F9
:1016A00003178D0000308F008A1103131A228A1548
:1016B0000530EA000230EB008A11DC218A15103077
:1016C00084003808E1003708E0008A1170228A158A
:1016D0000C30EA000230EB008A11DC218A15B730A9
:1016E00003178D0000308F008A1103131A228A1508
:1016F000FF30B900272C0C30E9008A11EE218A1541
:101700000330EA000130EB008A11DC218A15B93080
:1017100003178D0000308F008A1103131A228A15D7
:101720000530EA000230EB008A11DC218A15103006
:1017300084003808E1003708E0008A1170228A1519
:101740000C30EA000230EB008A11DC218A15BF3030
:1017500003178D0000308F008A1103131A228A1597
:10176000FF30B900272C0C30E9008A11EE218A15D0
:101770000330EA000130EB008A11DC218A15C13008
:1017800003178D0000308F008A1103131A228A1567
:101790000530EA000230EB008A11DC218A15103096
:1017A00084003808E1003708E0008A1170228A15A9
:1017B0000C30EA000230EB008A11DC218A15C730B8
:1017C00003178D0000308F008A1103131A228A1527
:1017D000FF30B900272C0C30E9008A11EE218A1560
:1017E0000430EA000130EB008A11DC218A15C9308F
:1017F00003178D0000308F008A1103131A228A15F7
:101800000530EA000230EB008A11DC218A15103025
:1018100084003808E1003708E0008A1170228A1538
:101820000C30EA000230EB008A11DC218A15CF303F
:1018300003178D0000308F008A1103131A228A15B6
:10184000FF30B900272C83160C108312272C351576
:1018500035088316870083120719422C0130B8001F
:10186000F430B7000C30E9008A11EE218A150730F8
:10187000B900D13003178D0000308F008A11031397
:10188000EC228A15831686168312861A642C380871
:10189000613C031C552C031D512C3708A73C031C2D
:1018A000552CB70A0319B80A592C6130B800A83072
:1018B000B7006330B900D93003178D0000308F00B6
:1018C0008A110313EC228A15831606168312061A50
:1018D000882C3808003C0318792CFF3A031D742C1F
:1018E0003708F43C0318792C37080319B803B703F9
:1018F0007D2C0130B800F430B7006330B900E0301F
:1019000003178D0000308F008A110313EC228A1513
:10191000831686178312861B362D01303602FA3E57
:101920000318362D063EF32D3808DF003708DE0099
:101930008A1144238A157908C7007808C600380838
:10194000D3003708D2000B30B900E73003178D0001
:1019500000308F008A110313EC228A15362D3808C7
:10196000DF003708DE008A1144238A157908C90090
:101970007808C8003808D5003708D4000C30B90002
:10198000EE3003178D0000308F008A110313EC2214
:101990008A15362D3808DF003708DE008A11442307
:1019A0008A157908C7007808C6003808D7003708B4
:1019B000D6000D30B900F53003178D0000308F00D0
:1019C0008A110313EC228A15362D3808DF003708F8
:1019D000DE008A1144238A157908C7007808C600FA
:1019E0003808D9003708D8000E30B900FC3003178A
:1019F0008D0000308F008A110313EC228A15362DDA
:101A00003808DF003708DE008A1144238A15790878
:101A1000C7007808C6003808DB003708DA000F3046
:101A2000B900033003178D0001308F008A110313B2
:101A3000EC228A15362D3808DF003708DE008A11BF
:101A400044238A157908C7007808C6003808DD00E5
:101A50003708DC001030B9000A3003178D00013060
:101A60008F008A110313EC228A15362D83168615F2
:101A700083128619502D0130B6004708B20046087F
:101A8000B10083160C141130831203178D0001303E
:101A90008F008A110313EC228A150130B900F12D51
:101AA00083160615831206196A2D0230B6004908FE
:101AB000B2004808B10083160C14173083120317C4
:101AC0008D0001308F008A110313EC228A15023039
:101AD000B900F12D83168614831286188B2D0330DE
:101AE000B6004B08B2004A08B10083160C141D3032
:101AF000831203178D0001308F008A110313EC222B
:101B00008A150330B9005708DF005608DE008A1135
:101B1000D3228A15F12D8316061483120618AC2DD4
:101B20000430B6004D08B2004C08B10083160C1406
:101B30002330831203178D0001308F008A110313A5
:101B4000EC228A150430B9005908DF005808DE007D
:101B50008A11D3228A15F12DB51635088316870010
:101B60008312871ACF2D0530B6004F08B2004E08F9
:101B7000B10083160C142930831203178D00013035
:101B80008F008A110313EC228A150530B9005B0817
:101B9000DF005A08DE008A11D3228A15F12D35168E
:101BA0003508831687008312071AF12D0630B60018
:101BB0005108B2005008B10083160C142F30831264
:101BC00003178D0001308F008A110313EC228A1550
:101BD0000630B9005D08DF005C08DE008A11D32200
:101BE0008A15B02863000A148A100A158207942CFB
:0A1BF000AF2CCA2CE52C002D1B2D94
:04400E00C42FFF3F7D
:00000001FF
;PIC16F886
;CRC=A9A1  CREATED="11-มี.ค.-21 22:44"
